{
  "_format": "hh-sol-artifact-1",
  "contractName": "TokenSwap",
  "sourceName": "contracts/TokenSwap.sol",
  "abi": [
    {
      "inputs": [
        {
          "internalType": "address",
          "name": "_tokenA",
          "type": "address"
        },
        {
          "internalType": "address",
          "name": "_tokenB",
          "type": "address"
        }
      ],
      "stateMutability": "nonpayable",
      "type": "constructor"
    },
    {
      "inputs": [],
      "name": "FEE_PERCENT",
      "outputs": [
        {
          "internalType": "uint256",
          "name": "",
          "type": "uint256"
        }
      ],
      "stateMutability": "view",
      "type": "function"
    },
    {
      "inputs": [
        {
          "internalType": "uint256",
          "name": "amountA",
          "type": "uint256"
        },
        {
          "internalType": "uint256",
          "name": "amountB",
          "type": "uint256"
        }
      ],
      "name": "addLiquidity",
      "outputs": [],
      "stateMutability": "nonpayable",
      "type": "function"
    },
    {
      "inputs": [
        {
          "internalType": "uint256",
          "name": "amountIn",
          "type": "uint256"
        },
        {
          "internalType": "uint256",
          "name": "reserveIn",
          "type": "uint256"
        },
        {
          "internalType": "uint256",
          "name": "reserveOut",
          "type": "uint256"
        }
      ],
      "name": "getAmountOut",
      "outputs": [
        {
          "internalType": "uint256",
          "name": "",
          "type": "uint256"
        }
      ],
      "stateMutability": "pure",
      "type": "function"
    },
    {
      "inputs": [],
      "name": "reserveA",
      "outputs": [
        {
          "internalType": "uint256",
          "name": "",
          "type": "uint256"
        }
      ],
      "stateMutability": "view",
      "type": "function"
    },
    {
      "inputs": [],
      "name": "reserveB",
      "outputs": [
        {
          "internalType": "uint256",
          "name": "",
          "type": "uint256"
        }
      ],
      "stateMutability": "view",
      "type": "function"
    },
    {
      "inputs": [
        {
          "internalType": "uint256",
          "name": "amountIn",
          "type": "uint256"
        }
      ],
      "name": "swapAForB",
      "outputs": [],
      "stateMutability": "nonpayable",
      "type": "function"
    },
    {
      "inputs": [
        {
          "internalType": "uint256",
          "name": "amountIn",
          "type": "uint256"
        }
      ],
      "name": "swapBForA",
      "outputs": [],
      "stateMutability": "nonpayable",
      "type": "function"
    },
    {
      "inputs": [],
      "name": "tokenA",
      "outputs": [
        {
          "internalType": "contract IERC20",
          "name": "",
          "type": "address"
        }
      ],
      "stateMutability": "view",
      "type": "function"
    },
    {
      "inputs": [],
      "name": "tokenB",
      "outputs": [
        {
          "internalType": "contract IERC20",
          "name": "",
          "type": "address"
        }
      ],
      "stateMutability": "view",
      "type": "function"
    }
  ],
  "bytecode": "0x6080604052348015600f57600080fd5b50604051610916380380610916833981016040819052602c916077565b600080546001600160a01b039384166001600160a01b0319918216179091556001805492909316911617905560a5565b80516001600160a01b0381168114607257600080fd5b919050565b60008060408385031215608957600080fd5b609083605c565b9150609c60208401605c565b90509250929050565b610862806100b46000396000f3fe608060405234801561001057600080fd5b50600436106100935760003560e01c80635f64b55b116100665780635f64b55b146101075780639cd441da1461011a578063dc5fa6c51461012d578063e619a49814610136578063eaf98d231461014957600080fd5b80630310209114610098578063054d50d4146100ad5780630fc63d10146100d357806319e36f3b146100fe575b600080fd5b6100ab6100a63660046106fd565b610151565b005b6100c06100bb366004610716565b610300565b6040519081526020015b60405180910390f35b6000546100e6906001600160a01b031681565b6040516001600160a01b0390911681526020016100ca565b6100c060035481565b6001546100e6906001600160a01b031681565b6100ab610128366004610742565b6103f3565b6100c060025481565b6100ab6101443660046106fd565b61055c565b6100c0600381565b6000546040516323b872dd60e01b81526001600160a01b03909116906323b872dd9061018590339030908690600401610764565b6020604051808303816000875af11580156101a4573d6000803e3d6000fd5b505050506040513d601f19601f820116820180604052508101906101c89190610788565b61020b5760405162461bcd60e51b815260206004820152600f60248201526e151c985b9cd9995c8819985a5b1959608a1b60448201526064015b60405180910390fd5b600061021c82600254600354610300565b60015460405163a9059cbb60e01b8152336004820152602481018390529192506001600160a01b03169063a9059cbb906044016020604051808303816000875af115801561026e573d6000803e3d6000fd5b505050506040513d601f19601f820116820180604052508101906102929190610788565b6102cc5760405162461bcd60e51b815260206004820152600b60248201526a14ddd85c0819985a5b195960aa1b6044820152606401610202565b81600260008282546102de91906107c7565b9250508190555080600360008282546102f791906107e0565b90915550505050565b60008084116103455760405162461bcd60e51b81526020600482015260116024820152700496e707574206d757374206265203e203607c1b6044820152606401610202565b6000831180156103555750600082115b61039a5760405162461bcd60e51b8152602060048201526016602482015275496e73756666696369656e74206c697175696469747960501b6044820152606401610202565b60006103a960036103e86107e0565b6103b390866107f3565b905060006103c184836107f3565b90506000826103d2876103e86107f3565b6103dc91906107c7565b90506103e8818361080a565b979650505050505050565b6000821180156104035750600081115b6104415760405162461bcd60e51b815260206004820152600f60248201526e496e76616c696420616d6f756e747360881b6044820152606401610202565b6000546040516323b872dd60e01b81526001600160a01b03909116906323b872dd9061047590339030908790600401610764565b6020604051808303816000875af1158015610494573d6000803e3d6000fd5b505050506040513d601f19601f820116820180604052508101906104b89190610788565b506001546040516323b872dd60e01b81526001600160a01b03909116906323b872dd906104ed90339030908690600401610764565b6020604051808303816000875af115801561050c573d6000803e3d6000fd5b505050506040513d601f19601f820116820180604052508101906105309190610788565b50816002600082825461054391906107c7565b9250508190555080600360008282546102f791906107c7565b6001546040516323b872dd60e01b81526001600160a01b03909116906323b872dd9061059090339030908690600401610764565b6020604051808303816000875af11580156105af573d6000803e3d6000fd5b505050506040513d601f19601f820116820180604052508101906105d39190610788565b6106115760405162461bcd60e51b815260206004820152600f60248201526e151c985b9cd9995c8819985a5b1959608a1b6044820152606401610202565b600061062282600354600254610300565b60005460405163a9059cbb60e01b8152336004820152602481018390529192506001600160a01b03169063a9059cbb906044016020604051808303816000875af1158015610674573d6000803e3d6000fd5b505050506040513d601f19601f820116820180604052508101906106989190610788565b6106d25760405162461bcd60e51b815260206004820152600b60248201526a14ddd85c0819985a5b195960aa1b6044820152606401610202565b81600360008282546106e491906107c7565b9250508190555080600260008282546102f791906107e0565b60006020828403121561070f57600080fd5b5035919050565b60008060006060848603121561072b57600080fd5b505081359360208301359350604090920135919050565b6000806040838503121561075557600080fd5b50508035926020909101359150565b6001600160a01b039384168152919092166020820152604081019190915260600190565b60006020828403121561079a57600080fd5b815180151581146107aa57600080fd5b9392505050565b634e487b7160e01b600052601160045260246000fd5b808201808211156107da576107da6107b1565b92915050565b818103818111156107da576107da6107b1565b80820281158282048414176107da576107da6107b1565b60008261082757634e487b7160e01b600052601260045260246000fd5b50049056fea264697066735822122046f03c24b5257f4c9a7a30a15550ef3d4ececc11f901c0fff530e80ac3c9e4e064736f6c634300081c0033",
  "linkReferences": {},
  "deployedLinkReferences": {}
}